:1000000045C0000060C000005EC000005CC0000091
:100010005AC0000058C0000056C0000054C0000084
:1000200052C0000050C000004EC000004CC0000094
:100030004AC000006DC0000046C0000044C000007F
:1000400042C0000040C000003EC000003CC00000B4
:100050003AC0000038C0000036C0000034C00000C4
:1000600032C0000030C000002EC000002CC00000D4
:100070002AC0000028C0000026C0000024C00000E4
:1000800022C0000020C000001EC0000011241FBEBE
:10009000CFEFD0E4DEBFCDBF11E0A0E0B1E0EEE2F3
:1000A000F2E000E00BBF02C007900D92A430B10750
:1000B000D9F721E0A4E0B1E001C01D92AB30B20756
:1000C000E1F79FD0B2C09CCF8BE0809381008DE799
:1000D00090E0909389008093880082E080936F0085
:1000E000109285001092840080910001909101018E
:1000F000A0910201B0910301809306019093070142
:10010000A0930801B09309018FB780688FBF08954D
:100110001F920F920FB60F9211248F939F93AF935C
:10012000BF938091060190910701A0910801B091C1
:1001300009010197A109B109809306019093070174
:10014000A0930801B0930901892B8A2B8B2B99F47A
:1001500081E0809305018091000190910101A091BF
:100160000201B09103018093060190930701A093CF
:100170000801B0930901BF91AF919F918F910F90AA
:100180000FBE0F901F9018956093000170930101AE
:10019000809302019093030160930601709307011D
:1001A0008093080190930901089580910A0181309C
:1001B00051F028F0823059F0833069F010C081E0AE
:1001C00080930A0112C082E080930A0112C083E08A
:1001D00080930A0112C081E080930A0106C0823038
:1001E00041F0833051F0813059F481E08093040173
:1001F000089582E080930401089584E080930401CF
:1002000008958FEF84B915B868EE73E080E090E050
:10021000BBDF5ADFCADF8091040185B980910501F7
:0E0220008823E1F310920501F5CFF894FFCF8B
:04022E0001000000CB
:00000001FF
